:020000040800F2
:10000000F02000209D010008AD270008BB25000856
:10001000A92700082506000851310008000000004B
:1000200000000000000000000000000005010008C2
:10003000A506000800000000490100089D2C0008EA
:10004000B7010008B7010008B7010008B7010008B0
:10005000B7010008B7010008B7010008B7010008A0
:10006000B7010008B7010008B7010008B701000890
:10007000B7010008B7010008B7010008B701000880
:10008000B7010008B7010008B7010008B701000870
:10009000B7010008B7010008B7010008B701000860
:1000A000B7010008B7010008B7010008B701000850
:1000B000B7010008B7010008592D0008B701000872
:1000C000B7010008B7010008B7010008B701000830
:1000D000B70100083D310008B7010008B70100086A
:1000E000B7010008B7010008B7010008DFF810D019
:1000F00000F0CCF9004800472D340008AFF3008031
:10010000F0200020224B19680868B0E8F00F80F357
:100110000988BFF36F8F4FF0000080F311884EF015
:100120000D0E70470000000006480068006880F36C
:10013000088862B661B6BFF34F8FBFF36F8F00DFE1
:1001400000BF00BF08ED00E0EFF30980BFF36F8F41
:100150000F4B1A6820E9F00F106008B54FF05000FF
:1001600080F31188BFF34F8FBFF36F8F04F0DAFB7A
:100170004FF0000080F31188BDE808401968086856
:10018000B0E8F00F80F30988BFF36F8F704700BFAE
:1001900040000020EFF305807047000006488047CC
:1001A00006480047FEE7FEE7FEE7FEE7FEE7FEE75C
:1001B000FEE7FEE7FEE7FEE7552D0008ED0000082C
:1001C000202A04DB203A21FA02F00021704721FAAC
:1001D00002F3D040C2F12002914008431946704713
:1001E00040EA01039B0703D009E008C9121F08C0B9
:1001F000042AFAD203E011F8013B00F8013B521E39
:10020000F9D27047D2B201E000F8012B491EFBD2AF
:1002100070470022F6E710B513460A460446194611
:10022000FFF7F0FF204610BD2DE9FE4F81EA0304E1
:1002300004F0004421F0004100944FF0000B23F043
:10024000004350EA01045ED052EA03045BD0C3F3DA
:100250000A54C1F30A552C44A4F2F3340194A0FBD0
:100260000254C1F3130141F48011C3F3130343F4A7
:10027000801301FB024400FB034E840A970A44EA00
:10028000815447EA8357A4FB076802958D0A05FB52
:1002900007854FEA932C04FB0C542705029D4FEA77
:1002A000065847EA1637B5EB08056EEB070C870EC4
:1002B000920E47EA811742EA8312A7FB0201B6EBCE
:1002C0000B0164EB00042B0D43EA0C335E1844EB86
:1002D0001C50DA465146E7FB0201C5F313044FEA0E
:1002E0000B3343EA14534FEA0432019C43EA0603FA
:1002F000A4F10C040294009CCDE900B400F077F85E
:1003000003B0BDE8F08F00200146F9E796230022F4
:10031000114600F02FB80EB540F233410291002192
:10032000CDE900110A460B4600F061F803B000BDAC
:10033000C1F30A5210B5C1F3130140F2FF3341F487
:1003400080119A4201DA002010BD40F233439A42F4
:10035000A2F2334203DC5242FFF732FF10BD90405D
:1003600010BD0029A8BF7047401C490008BF20F0FD
:100370000100704710B4B0FA80FC00FA0CF050EAAB
:10038000010404BF10BC704749B1CCF1200421FA2C
:1003900004F411FA0CF118BF012121430843A3EB27
:1003A0000C01CB1D4FEA00614FEA102042BF002034
:1003B00010BC704700EBC35010440029A4BF10BC10
:1003C0007047401C490008BF20F0010010BC704776
:1003D00010B5141E73F1000408DA401C41F100014D
:1003E00092185B411A4301D120F0010010BD2DE9A4
:1003F000F04D92469B4611B1B1FA81F202E0B0FA9B
:1004000080F22032904600F053F804460F4640EA4E
:100410000A0041EA0B0153465A46084313D01146DD
:1004200053EA010019D0C8F140025046FFF7C8FE58
:1004300005460E4650465946424600F039F80843F4
:1004400005D0012004E020463946BDE8F08D0020AB
:10045000054346EAE0762C4337430A986305E40AED
:10046000A0EB08000022FD0A44EA47540A3002D5F6
:1004700000200146E9E7010510196941DDE9084559
:1004800000196941BDE8F04DA2E70000064C074D98
:1004900006E0E06840F0010394E807009847103454
:1004A000AC42F6D3FFF726FE485900086859000809
:1004B000202A04DB203A00FA02F100207047914024
:1004C000C2F1200320FA03F319439040704770B53E
:1004D000044600252068806800F00100F0B1206823
:1004E000806820F001002168886000F0D3FF054695
:1004F0000EE000F0CFFF401B022809D9A06A40F0AF
:100500001000A062E06A40F00100E062012070BDCE
:100510002068806800F001000028EAD10020F6E79A
:1005200038B504460025002000902068806800F05F
:10053000010080BB2068806840F00100216888606D
:10054000164800681649B0FBF1F0009002E00098F0
:10055000401E009000980028F9D100F09BFF05464E
:1005600013E000F097FF401B02280ED9A06A40F06C
:100570001000A062E06A40F00100E06200BF0020CD
:1005800084F8240000BF012038BD2068806800F096
:1005900001000028E5D00020F6E700003C00002024
:1005A00040420F00FEB504460D460027072C17D227
:1005B000DFE804F01604070A0D1013000120009074
:1005C0000EE0022000900BE00320009008E00420E1
:1005D000009005E00520009002E00620009000BF9A
:1005E00000BF072002900120019069460C4800F0EE
:1005F00093F900260FE00A4800F0D4FB1E210848BA
:1006000000F018FB064800F037FA0744044800F0F1
:1006100061FC701CC6B2AE42EDDBB7FBF5F0FEBD6F
:10062000B800002000BFFEE7F0B502460B46FF24ED
:10063000FF25164609E016F8010B80EA0401074879
:10064000405C80EA05040648455C181EA3F10107DA
:10065000BBB2F0D145EA0420F0BD000010570008FD
:100660001058000870B50D48008AA8B1142414224F
:100670000A490B48FFF7B4FD21460948FFF7D4FFAC
:1006800005460749081929B201F099FF02F062FDF9
:1006900000200249088200BF70BD0000E003002076
:1006A0007C0300207047000040F6B8300449088001
:1006B00048808880C8800881C86000200882704710
:1006C000E003002030B585B0054600248222214693
:1006D000641C0DF8012000222146641C0DF8012045
:1006E000A0222146641C0DF8012001222146641C31
:1006F0000DF801202846E91705EB5171C1F3C70336
:100700002246641C0DF8023040222146641C0DF87C
:10071000012000222146641C0DF801202146684674
:1007200000F002F805B030BD38B505460C460EA005
:10073000006800908DF802400C48BDF80010018060
:100740009DF80210817022462946C01CFFF748FD23
:10075000E01C064981F80001084690F800210A23B0
:10076000034801F0C0FE38BD5AA500007A01002000
:10077000E800002070B586B005460E4600248222AF
:100780002146641C01A842542A122146641C42548A
:100790002146641C455432122146641C42542146B1
:1007A000641C46542146FFF7BFFF06B070BD72B609
:1007B00000BFFEE70021074AD1610749096941F0FE
:1007C0000401054A11611146096941F040011161B6
:1007D00070470000F8030020002002400021074A73
:1007E000D1610749096941F00201054A11611146C9
:1007F0004861096941F0400111617047F803002028
:10080000002002400022054BDA61054A126942F0DD
:100810000102034B1A61018070470000F8030020B9
:100820000020024000201E49C96801F0100139B1C2
:100830001C49C96941F002011A4AD16140F0100017
:100840001749C96801F0040139B11649C96941F075
:100850000101144AD16140F004001149C96901F055
:10086000010169B10F49C96941F004010D4AD16123
:1008700000BF0B49C96921F00101094AD16100BFDC
:1008800000BF40F20111884206D10549C96921F033
:100890000101034AD16101E00149C86000BF70470E
:1008A00000200240F803002070B5044600F0F2FD7D
:1008B000054609E0601C38B124B100F0EBFD401B97
:1008C000A04201D9032070BD1248C06800F00100A9
:1008D0000028EFD10F48C06800F0200020B100BF11
:1008E00020200C49C86000BF0A48C06800F0100012
:1008F00048B90848C06900F0010020B90548C0683F
:1009000000F0040018B1FFF78DFF0120DBE70020A5
:10091000D9E700000020024038B50246002300203D
:10092000009000BF92F82400012801D1022038BDB8
:10093000012082F8240000BF4868072812D21068FE
:10094000406B0C79641E04EB84051F24AC40A0436B
:100950000D796D1E05EB85050C68AC4020431468CD
:10096000606327E048680D2812D21068006B0C798C
:10097000E41F04EB84051F24AC40A0430D79ED1F58
:1009800005EB85050C68AC4020431468206311E03A
:100990001068C06A0C790D3C04EB84051F24AC4040
:1009A000A0430D790D3D05EB85050C68AC40204357
:1009B0001468E06208680A2812D31068C0680C78CE
:1009C0000A3C04EB44050724AC40A0430D780A3DE3
:1009D00005EB45058C68AC4020431468E0600FE0EF
:1009E000106800690C7804EB44050724AC40A04370
:1009F0000D7805EB45058C68AC40204314682061F8
:100A00000868102802D00868112827D1174C1068F0
:100A1000A0421ED11068806800F40000F0B9106890
:100A2000806840F400001468A0600868102815D1A0
:100A30000F4800680F4CB0FBF4F000EB8000400062
:100A4000009002E00098401E009000980028F9D124
:100A500004E0906A40F020009062012300BF002073
:100A600082F8240000BF184661E70000002401401E
:100A70003C00002040420F0001460868C06C7047EF
:100A80002DE9F0410446002700250026A84614B9A8
:100A90000120BDE8F081A06810B1207D00B100BF49
:100AA000A06A30B90020E06284F82400204600F0FB
:100AB00089F82046FFF70BFD0746A06A00F01000FA
:100AC000002873D1002F71D1A06A20F4885040F023
:100AD0000200A062E16960680843217B40EA4100AE
:100AE0000643A068B0F5807F02D0A068012802D13B
:100AF0004FF4807000E000200543207D012811D1D3
:100B0000207B38B9A069401E4FF4006141EA4030B3
:100B1000054307E0A06A40F02000A062E06A40F0D0
:100B20000100E0622068406820F4694028432168A1
:100B30004860206880682149084030432168886007
:100B4000A068B0F5807F02D0A068012802D14FF4E0
:100B5000807000E00020B0F5807F03D1208A401E25
:100B60004FEA00582068C06A20F4700040EA08008C
:100B70002168C8622068806811490840B04208D1E5
:100B80000020E062A06A20F0020040F00100A062B4
:100B900011E0A06A20F0020040F01000A062E06ABC
:100BA00040F00100E062012705E0FFE7A06A40F0A5
:100BB0001000A062012738466BE70000FDF7E1FF57
:100BC000FE0E1FFF10B586B0044600200290039071
:100BD0000490059014492068884222D100BF134830
:100BE000806940F40070114988610846806900F40A
:100BF0000070019000BF00BF00BF0846806940F050
:100C0000040088610846806900F00400019000BF7C
:100C100000BF7C2002900320039002A9044800F04A
:100C2000A3FA06B010BD00000024014000100240ED
:100C300000080140F8B504460D460026002000904B
:100C4000002700F027FC06462068806800F48070CA
:100C500050B1A06A40F02000A06200BF002084F8DC
:100C6000240000BF0120F8BD2068406800F48070B7
:100C7000F8B92068C06A00F47000D0B912E0681CAE
:100C800080B125B100F006FC801BA8420AD9A06AF9
:100C900040F00400A06200BF002084F8240000BFE0
:100CA0000320E0E72068006800F002000028E6D09A
:100CB00050E0022000F0EAFC36490968B1FBF0F090
:100CC00021680969344A114091B92168C9689211B3
:100CD000114069B921680969304A114031B9216868
:100CE000C9689211114009B9142117E0292115E0B2
:100CF00021680969294A114021B92168C9689211FE
:100D0000114041B121680969254A114029B921687A
:100D1000C968114009B9542100E0FC2100FB01F72A
:100D200015E0681C80B125B100F0B4FB801BA8421F
:100D30000AD9A06A40F00400A06200BF002084F835
:100D4000240000BF03208EE70098401C009000980C
:100D5000B842E6D36FF0120021680860A06A40F440
:100D60000070A0622068806800F46020B0F5602FF9
:100D70000DD1207B58B9A06A20F48070A062A06ACF
:100D800000F4805018B9A06A40F00100A062002071
:100D900069E700003C000020244992249224491273
:100DA0004992240070B50446002500BF94F8240041
:100DB000012801D1022070BD012084F8240000BF69
:100DC0002046FFF7ADFB0546002D77D1A06A40F223
:100DD0000121884340F48070A0623C492068884229
:100DE00008D13B48006800F4702008B9012002E0F7
:100DF000002000E0012078B1A06A20F48010A062F9
:100E00002068406800F4806000B3A06A20F40050BD
:100E100040F48050A06219E0A06A40F48010A06203
:100E20002B49091F2068884203D02849206888423E
:100E300004D12748006800F4806000E0002028B159
:100E4000A06A20F4005040F48050A062A06A00F430
:100E5000805020B1E06A20F00600E06201E000204E
:100E6000E06200BF002084F8240000BFC01E21689B
:100E700008602068806800F46020B0F5602F16D10B
:100E800012492068884208D11148006800F4702097
:100E900008B9012002E0002000E0012038B12068FC
:100EA000806840F4A000216888600CE006E02068BB
:100EB000806840F480102168886004E000BF002052
:100EC00084F8240000BF284675E700000028014090
:100ED0000424014070B50446002500BF94F82400A6
:100EE000012801D1022070BD012084F8240000BF38
:100EF0002046FFF7ECFA05462DB9A06A20F4885089
:100F000040F00100A06200BF002084F8240000BF70
:100F10002846E8E770B50446002594F82100022829
:100F200003D00420A063012548E02068006820F079
:100F30000E00216808602068006820F00100216828
:100F400008601F492068884201D1012026E01C4921
:100F500014312068884201D110201FE0184928313F
:100F60002068884201D1801518E015493C3120687D
:100F7000884201D1801411E0114950312068884223
:100F800002D14FF4803009E00D4964312068884275
:100F900002D14FF4801001E04FF080700849083909
:100FA0004860012084F8210000BF002084F8200060
:100FB00000BF606B10B12046616B8847284670BD4A
:100FC000080002402DE9F04104460E4601270025A5
:100FD00000BF2648007E012802D10220BDE8F08132
:100FE00001202249087600BF2068022813D14CF264
:100FF0005030FFF759FC90BB0120FFF7DBFB4CF2B0
:101000005030FFF751FC07461948006920F00400F2
:101010001749086123E04CF25030FFF745FCF0B966
:101020004FF0FF303060A56812E02846FFF7D6FB8E
:101030004CF25030FFF738FC07460D48006920F0AD
:1010400002000B4908610FB1356007E005F58065C6
:10105000D4E9021001EB8020A842E6D800BF00BF0F
:1010600000200249087600BF3846B7E7F8030020A1
:10107000002002400348006940F0800001490861F7
:1010800000207047002002402DE9FE4F05468B46A8
:1010900017469846012600240020029000BF2448ED
:1010A000007E012802D10220BDE8FE8F01202049E8
:1010B000087600BF4CF25030FFF7F6FB064686BBC1
:1010C000012D02D10120029006E0022D02D1022062
:1010D000029001E00420029000241EE02201B946A3
:1010E000C24648465146FFF76BF880B20190022095
:1010F00000FB04B000900199FFF784FB4CF25030E4
:10110000FFF7D2FB06460B48006920F001000949B1
:10111000086106B104E0601CC4B202988442DDDBC1
:1011200000BF00BF00200249087600BF3046BBE781
:10113000F80300200020024000200849096901F05E
:10114000800151B10649054A516006495160114676
:10115000096901F0800101B10120704700200240BF
:1011600023016745AB89EFCD2DE9F84703460022FF
:1011700094466EE14FF0010808FA02F4D1F80080BD
:1011800008EA0400A0427DD1DFF8DCA2D1F8048097
:10119000A8EB0A09D0453AD014DCB8F1030F50D0BF
:1011A00009DCB8F1000F31D0B8F1010F1CD0B8F153
:1011B000020F49D120E0B8F1110F18D0B8F1120F89
:1011C00042D11EE0B9F5881F25D006DCB9F5803F75
:1011D00020D0B9F5801F37D11AE0B9F5001F18D01B
:1011E000B9F5041F30D117E0D1F80CC02DE0D1F8CB
:1011F0000C8008F1040C28E0D1F80C8008F1080CF0
:1012000023E0D1F80C8008F10C0C1EE000BF00BFF9
:1012100000BF00BF00BF00BFD1F80880B8F1000FC9
:1012200002D14FF0040C0BE0D1F80880B8F1010FA7
:1012300003D14FF0080C1C6102E04FF0080C5C6118
:1012400003E04FF0000C00E000BF00BFFF2801D812
:10125000984601E003F104084646FF2802D84FEA09
:10126000820803E0A2F108084FEA88084746D6F84A
:1012700000804FF00F0909FA07F928EA09080CFA6B
:1012800007F900E088E048EA0908C6F80080D1F8CC
:10129000048008F08058B8F1805F7DD100BFDFF88E
:1012A000CC81D8F8188048F00108DFF8C091C9F85F
:1012B0001880C846D8F8188008F00108CDF80080DA
:1012C00000BF00BF4FEAB9384FEA920958F82950D9
:1012D0004FEA82784FEA18794FF00F0808FA09F8B8
:1012E00025EA0805DFF88881434502D14FF0000860
:1012F00016E0DFF88081434502D14FF001080FE08E
:10130000DFF87481434502D14FF0020808E0DFF8AE
:101310006C81434502D14FF0030801E04FF004080F
:101320004FEA82794FEA197908FA09F848EA05057F
:10133000DFF84C814FEA920948F82950D1F804802F
:1013400008F48038B8F5803F0AD1DFF83881D8F842
:10135000008048EA0008DFF82C91C9F8008009E015
:10136000DFF82081D8F8008028EA0008DFF814911F
:10137000C9F80080D1F8048008F40038B8F5003FBF
:1013800010D1DFF8008108F10408D8F8008048EA9D
:101390000008DFF8F09000E05AE009F10409C9F80C
:1013A00000800DE0DFF8DC8008F10408D8F8008048
:1013B00028EA0008DFF8CC9009F10409C9F8008098
:1013C000D1F8048008F48018B8F5801F0ED1DFF83A
:1013D000B48008F10808D8F8008048EA0008DFF86F
:1013E000A49009F10809C9F800800DE0DFF89480A5
:1013F00008F10808D8F8008028EA0008DFF884908F
:1014000009F10809C9F80080D1F8048008F400182F
:10141000B8F5001F0ED1DFF86C8008F10C08D8F881
:10142000008048EA0008DFF85C9009F10C09C9F86F
:1014300000800DE0DFF84C8008F10C08D8F800803F
:1014400028EA0008DFF83C9009F10C09C9F800808F
:10145000521CD1F8008028FA02F8B8F1000F7FF48E
:1014600089AEBDE8F88700000000111000100240AE
:1014700000080140000C0140001001400014014030
:1014800008000140000401400AB1016101E00B04C1
:101490000361704701480068704700003000002079
:1014A0000348006803490978084401490860704707
:1014B000300000203800002010B50848006840F0D7
:1014C000100006490860032000F0CCF8002000F06E
:1014D00007F800F049F8002010BD0000002002408D
:1014E00070B588B0044600250026002221461E2043
:1014F00000F07AF81E2000F067F800BF1648C069B7
:1015000040F004001449C8610846C06900F00400B6
:10151000019000BF00BF02A903A800F0A1FA00F0EB
:10152000C7FA45000D48B5FBF0F0461E0C480D49C2
:10153000086040F2E7310B48C1604660002101615C
:10154000816000F053FD20B9064800F083FD08B02B
:1015500070BD0120FBE700000010024040420F0078
:10156000000800402801002008B500BF1448806929
:1015700040F00100124988610846806900F00100CE
:10158000009000BF00BF00BF0846C06940F0805017
:10159000C8610846C06900F08050009000BF00BFDD
:1015A00000220F21901E00F01FF800BF0549486877
:1015B00020F0E06040F00070486000BF08BD00000F
:1015C000001002400000014001460846002809DBE7
:1015D00000F01F0301229A4043099B0003F1E0231E
:1015E000C3F8002100BF70472DE9F05F80460D462B
:1015F0001646002701F0DCFD074639462A463346E9
:1016000001F00700C0F1070ABAF1040F02D94FF048
:10161000040A01E0C0F1070AD14600F1040ABAF158
:10162000070F02D24FF0000A01E0A0F1030AD446EE
:101630004FF0010A0AFA09FAAAF1010A0AEA020AB3
:101640000AFA0CFA4FF0010B0BFA0CFBABF1010B91
:101650000BEA030B4AEA0B042146404601F0B0FDB9
:10166000BDE8F09F00BF00F00702064B19684FF677
:10167000FF031940044B0B4343EA0221014B19605D
:1016800000BF70470CED00E00000FA052DE9F043C3
:1016900085B006463BA30FCB01AC0FC43DA000684C
:1016A00000904FF00008002500270024A146012EDD
:1016B00030D0022E55D0102E5ED1374844680068D5
:1016C00000F0807000B301A8C4F38341475C04F4C8
:1016D000803070B130484068C0F340401DF8008051
:1016E00004F4803040B12D48B0FBF8F000FB07F562
:1016F00002E02B4807FB00F52748406800F4800013
:10170000B0F5800F01D1A94603E068000321B0FBCA
:10171000F1F932E02048046A04F44070B0F5807FAB
:1017200005D104F0020010B14FF4004918E004F4B0
:101730004070B0F5007F07D11748406A00F0020002
:1017400010B149F640490BE004F44070B0F5407F19
:1017500006D11148006800F4003008B14FF2244966
:101760000BE000F0B5F90C494968C1F38131491C1F
:101770004900B0FBF1F900E000BF00BF484605B0EA
:10178000BDE8F08302030405060708090A0B0C0DE7
:101790000E0F1010010200000010024000127A002B
:1017A00000093D00F8B5044600260025207800F029
:1017B000010000286BD000274348C06900F080502A
:1017C00070B900BF4048C06940F080503E49C861D0
:1017D0000846C06900F08050009000BF00BF01279C
:1017E0003A48006800F48070B0B93848006840F4A6
:1017F000807036490860FFF74DFE064606E0FFF7A9
:1018000049FE801B642801D90320F8BD2F480068D9
:1018100000F480700028F2D02B48006A00F4407574
:101820002DB3A08800F44070A84220D02648006A5A
:1018300020F44075012026490860002008602248F5
:10184000056205F0010090B1FFF724FE064608E0AE
:10185000FFF720FE801B41F28831884201D9032026
:10186000D3E71948006A00F002000028F0D01648BB
:10187000006A20F440706168084313490862012F30
:1018800004D10846C06920F08050C86100BF2078AC
:1018900000F00200022807D10B48406820F44040C5
:1018A000A168084308494860207800F0100010281B
:1018B00007D10548406820F48000E16808430249E8
:1018C00048600020A1E700000010024000700040C6
:1018D0004004424270B504460D460CB9012070BD6B
:1018E0005A48006800F00700A8420ED25748006826
:1018F00020F007002843554908600846006800F0BA
:101900000700A84201D00120E9E7207800F002009A
:1019100002281DD1207800F00400042805D14C488D
:10192000406840F4E0604A494860207800F00800D0
:10193000082805D14648406840F460504449486052
:101940004348406820F0F000A168084340494860DF
:10195000207800F0010078B36068012806D13C4887
:10196000006800F4003090B90120B8E760680228F0
:1019700006D13748006800F0007040B90120AEE79A
:101980003348006800F0020008B90120A7E730489A
:10199000406820F00300616808432D494860FFF764
:1019A00079FD064609E0FFF775FD801B41F288319D
:1019B000884202D9032092E707E02548406800F0FA
:1019C0000C006168B0EB810FEDD12048006800F099
:1019D0000700A8420ED91D48006820F007002843E0
:1019E0001A4908600846006800F00700A84201D0C4
:1019F000012074E7207800F00400042807D114487F
:101A0000406820F4E060E1680843114948602078AC
:101A100000F00800082808D10D48406820F4605004
:101A2000216940EAC1000A49486000F061F80849AC
:101A30004968C1F30311074A515CC8400649086070
:101A400006480068FFF74CFD002048E700200240F0
:101A500000100240105900083C0000203400002013
:101A60000F2202600D4A526802F0030242600B4AE4
:101A7000526802F0F0028260084A526802F4E062A2
:101A8000C260064A526802F46052D2080261044AF7
:101A9000126802F007020A6070470000001002405E
:101AA0000020024001480068704700003C00002010
:101AB00000B5FFF7F7FF04494968C1F30221034A63
:101AC000515CC84000BD00000010024020590008D1
:101AD00000B5FFF7E7FF04494968C1F3C221034A93
:101AE000515CC84000BD00000010024020590008B1
:101AF000F0B585B00FF26C0C9CE8E01001A8A0E8EE
:101B0000E0101CA52D680095002100220023002470
:101B10000020194D696801F00C05F5B1042D02D0C3
:101B2000082D19D101E0154819E001ADC1F3834634
:101B3000AC5D01F4803555B10F4D6D68C5F340457E
:101B40001DF805200D4D6543B5FBF2F302E00C4D89
:101B500004FB05F3184602E000BF084800BF00BFC1
:101B600005B0F0BD02030405060708090A0B0C0DB9
:101B70000E0F1010010200000010024000127A0047
:101B800000093D00F8B504460CB90120F8BD2078E5
:101B900000F00100002878D0F848406800F00C0000
:101BA00004280CD0F548406800F00C00082811D13A
:101BB000F248406800F48030B0F5803F0AD1EF4829
:101BC000006800F4003000285FD0606800285CD115
:101BD0000120DBE700BF6068B0F5803F06D1E74831
:101BE000006840F48030E549086028E0606858B932
:101BF000E248006820F48030E04908600846006848
:101C000020F4802008601AE06068B0F5A02F0BD1A6
:101C1000DA48006840F48020D84908600846006827
:101C200040F4803008600AE0D448006820F4803036
:101C3000D24908600846006820F48020086000BF90
:101C4000606888B1FFF726FC054606E0FFF722FC36
:101C5000401B642801D9032098E7C848006800F4B5
:101C600000300028F2D010E0FFF714FC054606E033
:101C7000FFF710FC401B642801D9032086E7BF480A
:101C8000006800F400300028F2D1207800F0020053
:101C9000022857D1B948406800F00C0050B1B7484D
:101CA000406800F00C00082818D1B448406800F4DF
:101CB000803098B9B148006800F0020020B1206976
:101CC000012801D0012061E7AC48006820F0F8004D
:101CD000616940EAC100A949086033E02069E8B1C0
:101CE0000120A7490860FFF7D5FB054606E0FFF78E
:101CF000D1FB401B022801D9032047E79F48006819
:101D000000F002000028F2D09C48006820F0F800A3
:101D1000616940EAC1009949086013E000209849D0
:101D20000860FFF7B7FB054606E0FFF7B3FB401B73
:101D3000022801D9032029E79048006800F002003A
:101D40000028F2D1207800F0080008282DD1A069E1
:101D5000B8B101208B490860FFF79CFB054606E0FF
:101D6000FFF798FB401B022801D903200EE78348A8
:101D7000406A00F002000028F2D0012000F046FD89
:101D800013E000207F490860FFF784FB054606E06A
:101D9000FFF780FB401B022801D90320F6E67748B5
:101DA000406A00F002000028F2D1207800F0040020
:101DB000042873D100277148C06900F0805070B9C1
:101DC00000BF6E48C06940F080506C49C861084649
:101DD000C06900F08050009000BF00BF01276A4832
:101DE000006800F48070B0B96748006840F4807003
:101DF00065490860FFF74EFB054606E0FFF74AFB22
:101E0000401B642801D90320C0E65F48006800F445
:101E100080700028F2D000BFE068012806D1574842
:101E2000006A40F001005549086227E0E06858B9AF
:101E30005248006A20F00100504908620846006AD2
:101E400020F00400086219E0E06805280BD14B4837
:101E5000006A40F00400494908620846006A40F000
:101E6000010008620AE04548006A20F00100434989
:101E700008620846006A20F00400086200BFE068BB
:101E8000A0B1FFF707FB054609E0FFF703FB401B86
:101E900041F28831884202D9032077E622E03748B0
:101EA000006A00F002000028EFD012E0FFF7F2FA1B
:101EB000054608E0FFF7EEFA401B41F28831884200
:101EC00001D9032062E62D48006A00F002000028D4
:101ED000F0D1012F05D12948C06920F08050274951
:101EE000C86100BFE069C8B32448406800F00C0036
:101EF000082860D0E069022848D1002020490866FF
:101F0000FFF7C8FA054606E0FFF7C4FA401B0228AF
:101F100001D903203AE61948006800F00070002853
:101F2000F2D1206AB0F5803F07D11448406820F410
:101F30000030A168084311494860D4E9080108430A
:101F40000E49496821F4741108430C494860012086
:101F50000B490866FFF79EFA054607E03DE0FFF7EC
:101F600099FA401B022801D903200FE603480068B4
:101F700000F000700028F2D02FE0000000100240B6
:101F80000000424280044242007000400020144998
:101F90000866FFF77FFA054606E0FFF77BFA401B6D
:101FA000022801D90320F1E50E48006800F0007016
:101FB0000028F2D111E0E069012800D1E6E50948E6
:101FC000466806F48031206A814204D106F470111B
:101FD000606A814201D00120D8E50020D6E50000EA
:101FE00000004242001002407047704710B504469E
:101FF0000CB9012010BD94F83D0028B9002084F8E8
:102000003C00204600F025F8022084F83D00211D08
:10201000206800F0A9FE012084F8460000BF84F883
:102020003E0001213F20015540200155412001552E
:1020300000BF00BF012084F8420043200155442026
:1020400001554520015500BF012084F83D000020C6
:10205000D0E77047014691F83D00012801D00120EA
:102060007047022081F83D000868C06840F0010018
:102070000B68D860124B086898420BD00868B0F122
:10208000804F07D00F4B0868984203D00E4B08686A
:1020900098420CD10868806800F00702062A0CD02C
:1020A0000868006840F001000B68186005E00868E7
:1020B000006840F001000B6818600020D0E70000C5
:1020C000002C01400004004000080040704710B59B
:1020D000044620680069C0F34000D8B12068C06899
:1020E000C0F34000B0B16FF0020021680861012028
:1020F00020772068806900F0030018B12046FFF7C0
:10210000E5FF05E0204600F0ADF8204600F0ABF812
:102110000020207720680069C0F38000D8B12068D3
:10212000C068C0F38000B0B16FF00400216808619E
:10213000022020772068806900F4407018B12046A2
:10214000FFF7C4FF05E0204600F08CF8204600F0C1
:102150008AF80020207720680069C0F3C000D8B159
:102160002068C068C0F3C000B0B16FF008002168FB
:102170000861042020772068C06900F0030018B1CE
:102180002046FFF7A3FF05E0204600F06BF820464D
:1021900000F069F80020207720680069C0F3001083
:1021A000D8B12068C068C0F30010B0B16FF0100063
:1021B00021680861082020772068C06900F4407019
:1021C00018B12046FFF782FF05E0204600F04AF8EC
:1021D000204600F048F8002020772068006900F0D1
:1021E000010058B12068C06800F0010030B16FF004
:1021F000010021680861204600F036F82068006977
:10220000C0F3C01058B12068C068C0F3C01030B12E
:102210006FF08000216808612046FFF7E5FE206826
:102220000069C0F3801058B12068C068C0F3801006
:1022300030B16FF0400021680861204600F020F8BE
:1022400020680069C0F3401058B12068C068C0F32E
:10225000401030B16FF02000216808612046FFF780
:10226000C4FE10BD7047704710B50446034920688E
:10227000884201D1FFF714F910BD000000080040AA
:10228000704770472DE9F0470446206805682068CC
:10229000C668206847694FF00008C14605F00F087E
:1022A000B8F1000F0AD105F0200038B106F0200087
:1022B00020B1204600F00DFEBDE8F087B8F1000F18
:1022C00071D007F0010018B906F4907000286AD0A8
:1022D00005F0010030B106F4807018B1E06B40F0F9
:1022E0000100E06305F0040030B107F0010018B10F
:1022F000E06B40F00200E06305F0020030B107F04F
:10230000010018B1E06B40F00400E06305F0080044
:1023100048B106F0200010B907F0010018B1E06BD9
:1023200040F00800E063E06B68B305F0200028B1DE
:1023300006F0200010B1204600F0CBFD2068406977
:10234000C0F38019E06B00F0080010B9B9F1000F7C
:1023500022D0204600F09DFD2068406900F040003A
:10236000B0B12068406920F0400021684861606B8E
:1023700050B11848616B4863606BFEF7CBFD10B13C
:10238000606B416B88470CE02046FFF77AFF08E05E
:102390002046FFF776FF04E02046FFF772FF00209B
:1023A000E06389E7FFE705F0800030B106F08000C8
:1023B00018B1204600F05CFE7EE705F0400030B129
:1023C00006F0400018B1204600F073FD74E700BF2E
:1023D00072E700007F2E000810B504460CB90120FA
:1023E00010BDA06900B100E000BF94F8390028B921
:1023F000002084F83800204600F028F8242084F8D3
:1024000039002068C06820F400502168C860204668
:1024100000F0B0FD2068006920F490402168086158
:102420002068406920F02A00216848612068C0685F
:1024300040F400502168C8600020E063202084F848
:10244000390084F83A000020CAE7000010B586B0D1
:102450000446002002900390049005901E492068D5
:10246000884236D100BF1D48806940F480401B4936
:1024700088610846806900F48040019000BF00BF79
:1024800000BF0846806940F0040088610846806902
:1024900000F00400019000BF00BF48150290022028
:1024A00003900320059002A90D48FEF75DFE4FF44E
:1024B0008060029000200390049002A90848FEF773
:1024C00053FE002205212520FFF78EF82520FFF777
:1024D0007BF806B010BD000000380140001002403B
:1024E0000008014070472DE9F84F04460E46174694
:1024F00099464FF0000A94F8390020285AD106B1C5
:1025000017B90120BDE8F88F00BF94F83800012802
:1025100001D10220F6E7012084F8380000BF002036
:10252000E063212084F83900FEF7B4FF8246A784D7
:10253000E784A068B0F5805F04D1206910B9002558
:10254000B04602E035464FF0000800BF002084F896
:10255000380000BF1BE05346002280212046CDF802
:10256000009000F0B5FD08B10320CBE745B9B8F8FD
:102570000000C0F308002168486008F1020803E089
:102580002878216848606D1CE08C401EE084E08C57
:102590000028E0D15346002240212046CDF800908B
:1025A00000F096FD08B10320ACE7202084F8390044
:1025B0000020A7E70220A5E7704700BFFEE702461C
:1025C0000B0A13705170704710B500F033F91621E3
:1025D0000848FEF729F828B9142206490648FDF7ED
:1025E000FFFD06E0FEF760F8FF2003490882FEF7D2
:1025F00039F810BD7C030020E003002010B50B4823
:102600000B49086000210A488160017301754FF48D
:102610006021C16100200649486001210448016130
:10262000FEF72EFA08B1FEF7C2F810BD00240140F3
:10263000B800002010B50E4A00210E4800F066FFD9
:102640000D4908600D4A00210D4800F05FFF0D495B
:1026500008600D4A00210D4800F058FF0C49086041
:102660000C4A00210C4800F051FF0C49086010BDD5
:1026700080560008652C000800000020A4560008C1
:10268000732C000804000020C8560008812C0008A4
:1026900008000020EC5600088F2C00080C000020D9
:1026A00000B585B00020019002900390049000BF17
:1026B0002C48806940F020002A49886108468069DA
:1026C00000F02000009000BF00BF00BF08468069F6
:1026D00040F0040088610846806900F00400009022
:1026E00000BF00BF00BF0846806940F00800886155
:1026F0000846806900F00800009000BF00BF00227B
:102700004FF4C0711848FEF7BFFE002240F2E77197
:102710001648FEF7B9FE4FF4C070019001200290F8
:10272000002003900320049001A90F48FEF71CFD30
:1027300040F2E770019001200290002003900320F6
:10274000049001A90948FEF70FFD4FF4C050019015
:10275000002002900120039001A90348FEF704FD28
:1027600005B000BD0010024000080140000C01400F
:1027700010B50B480B4908604FF4E1304860002168
:1027800008488160C16001610C21416100218161C3
:10279000C161FFF721FE08B1FEF709F810BD000086
:1027A00000380140E800002000BFFEE700BFFEE760
:1027B00010B504462146012001F0AAFD2146022061
:1027C00001F0A6FD2146032001F0A2FD21460420D0
:1027D00001F09EFD2146052001F09AFD10BD10B5C7
:1027E00004462146012001F0D3FD2146022001F0DC
:1027F000CFFD2146032001F0CBFD2146042001F04E
:10280000C7FD2146052001F0C3FD10BD08B50849EC
:102810000968C9084FF47A72B1FBF2F141430091A3
:1028200000BF00BF00994A1E00920029F9D108BDDF
:102830003C00002030B5094900200BE00A88131243
:10284000012404EB4004064D2B552C4604F81020BF
:10285000891C401C3228F1DB30BD000000F000086C
:102860007C0300202148006800F02000E0B31F48EE
:10287000001D0068C1B21E4890F8002190F80001C8
:10288000401C1B4B83F800011846815490F800014E
:10289000042829DD184690F80001401E1946085CFE
:1028A0004B2821D1084690F80001801E085C4F2873
:1028B0001AD1084690F80001001F085C032813D1C4
:1028C000084690F80001401F085CA5280CD1084676
:1028D00090F80001801F085C5A2805D1084690F83E
:1028E0000001801F81F8000170470000003801409E
:1028F0007B0200202DE9F04704462078832873D11D
:10290000A078617840EA01266079217940EA0125C2
:10291000201D00F0AFFC8146201D00F0ABFC80467E
:10292000FDF7F4FC074641F23001701A8E422BD0BD
:102930000BDCA6F58050A0F1220068B1022811D06E
:10294000042815D0062863D118E0D02822D0D22838
:102950002ED0D4285CD148E03048058001202F4992
:10296000088255E02D48458001202C4908824FE01F
:102970002A48858001202949088249E02748C580E6
:1029800001202649088243E024480581012023498B
:1029900008823DE02148C0683C21B0FBF1F0C0EB6B
:1029A000001005EB80001D49C860012008822FE05F
:1029B0001A48C0683C21B0FBF1F201FB1200174934
:1029C000C9684FF46162B1FBF2F1C1EB4112C2EB95
:1029D000012100EB0110C5EB051100EB81000F494F
:1029E000C8600120088213E016E00C48C0684FF46C
:1029F0006161B0FBF1F201FB1200C5EB4511C1EBC7
:102A0000052100EB01100549C8600120088200BFC4
:102A100000BF0120BDE8F0870020FBE7E0030020B5
:102A200010B500F0F5FC08BB00F0EAFC20B3012073
:102A300001F068FC00BF00F0E3FC0028FBD10F4967
:102A4000C86801F0EBFC012001F0E2FC01200C4918
:102A50000880002004E002210A4A22F81010401CDD
:102A60000528F8DB0120FFF7A3FE05E000F0C8FC15
:102A700010B1032001F046FC10BD0000E00300206F
:102A80001A0000201000002010B500F0B9FCC0B101
:102A9000012001F037FC00BF00F0B2FC0028FBD1A0
:102AA000FFF786FE002001F0B3FC002004E00321C4
:102AB000404A22F81010401C0528F8DB03203E494C
:102AC000088000F0ADFCC0B9012001F01BFC002023
:102AD000FFF76EFE002001F09BFC3849C86801F04A
:102AE0009DFC002004E00321324A22F81010401C13
:102AF0000528F8DB0020304908800024002009E088
:102B00002F4931F810102D4A32F81020914200DD83
:102B10000124401C0528F3DB2CB3032001F0F2FB59
:102B20000020FFF745FE002001F072FC002004E0C9
:102B30000321204A22F81010401C0528F8DB002051
:102B40000CE01F4931F810101C4A32F81020914255
:102B500003DD0121174A22F81010401C0528F0DB84
:102B600002201549088000F053FC10B3012001F049
:102B7000C9FB0020FFF71CFE002001F049FC0020EB
:102B800004E003210B4A22F81010401C0528F8DB52
:102B900008E000F035FC10B1032001F0B3FB142075
:102BA00000F056FC00F034FC0028F2D1032002496A
:102BB000088010BD100000201A000020E003002053
:102BC0007001002010B500F01BFCE0B1022001F004
:102BD00099FB00BF00F014FC0028FBD1FFF7E8FDD3
:102BE000002001F015FC0849C86801F017FC00201E
:102BF00004E00321054A22F81010401C0528F8DBE8
:102C000000200349088010BDE003002010000020D0
:102C10001A00002010B500F0F3FBE0B1022001F033
:102C200071FB00BF00F0ECFB0028FBD1FFF7C0FDFB
:102C3000002001F0EDFB0849C86801F0EFFB00201F
:102C400004E00321054A22F81010401C0528F8DB97
:102C500000200349088010BDE00300201000002080
:102C60001A00002000BF00F0B9F8012000F0F0FBCE
:102C7000F9E700BF00F0CEF8012000F0E9FBF9E72A
:102C800000BF00F0E7F8012000F0E2FBF9E700BF29
:102C900000F0ECF8012000F0DBFBF9E710B500BF15
:102CA000502080F31188BFF34F8FBFF36F8F00BFA9
:102CB00002F0A6FA18B14FF080500449086000BF36
:102CC000002080F3118800BF10BD000004ED00E07B
:102CD00000B593B0282109A8FDF79BFA142104A898
:102CE000FDF797FA002000900190029003900120D8
:102CF000099000040A9000200B9001200D90022002
:102D00001090C10311914FF4E011129109A8FEF740
:102D100039FF08B1FDF74BFD0F200490022005900C
:102D2000002006904FF48060079000200890022158
:102D300004A8FEF7CFFD08B1FDF739FD0220009091
:102D4000800302906846FEF72DFD08B1FDF72FFDC8
:102D500013B000BD7047000010B50248FFF7B7F987
:102D600010BD00002801002010B50268184B9842E1
:102D700008D0B0F1804F05D0164B984202D0164BC8
:102D8000984203D122F070024B681A43104B9842CC
:102D900008D0B0F1804F05D00E4B984202D00E4BB8
:102DA000984203D122F44072CB681A4322F0800388
:102DB0004C6943EA040202608B68C3620B68836259
:102DC000034B984201D10B6903630123436110BD9A
:102DD000002C01400004004000080040642000F086
:102DE00037FB0020FFF7E4FC0120FFF7F8FC002090
:102DF00001F00EFB0649C86801F010FB002001F04D
:102E000007FB00BF01F058FA0A2000F021FBF9E7A8
:102E1000E00300204FF47A7000F01AFB0B480068C2
:102E2000C06840F0200009490968C86000200849CE
:102E300081F8000100BF00F099FA01F0BBF800F042
:102E4000EBF9642000F004FBF5E70000E800002047
:102E50007B020020642000F0FBFA00BF01F008FABA
:102E600001F0E2FA642000F0F3FAF7E7FFF7ACFBB9
:102E700000BFFDF7F7FB642000F0EAFAF9E770B550
:102E800005466C6A0020E085E0842046FFF7F9F9EA
:102E900070BD0168C96821F490710268D160016851
:102EA000496921F0010102685161202180F83A103E
:102EB000704710B504462068C06820F040002168C3
:102EC000C860202084F839002046FFF775FB0020F9
:102ED00010BD70B5044694F83A00222847D1A06886
:102EE000B0F5805F0CD1206950B90025A66A206832
:102EF0004068C0F308003080A06A801CA06215E022
:102F0000A56A0026A068B0F5805F03D0A06828B944
:102F1000206918B920684068287004E0206840687B
:102F200000F07F002870A06A401CA062E08D401E67
:102F300080B2E085C8B92068C06820F02000216810
:102F4000C8602068C06820F480702168C86020686C
:102F5000406920F0010021684861202084F83A008F
:102F60002046FFF7BFFA002070BD0020FCE70220DA
:102F7000FAE7000070B504462168096921F4405160
:102F8000E2681143226811612269A16811436269F4
:102F900041EA02052168C96841F20C629143294364
:102FA0002268D1602168496921F44071A269114306
:102FB000226851612D4A2168914202D1FEF788FDB5
:102FC00001E0FEF775FD00EBC00101EB0011626846
:102FD0009200B1FBF2F100EBC00202EB0012636859
:102FE0009B00B2FBF3F26423B2FBF3F202EBC203E9
:102FF00003EB0212A1EB8201322202EB01116422E7
:10300000B1FBF2F101F0F00100EBC00202EB0012A3
:1030100063689B00B2FBF3F26423B2FBF3F201EBB3
:10302000021200EBC00101EB001163689B00B1FBD1
:10303000F3F100EBC00303EB00136668B600B3FBCB
:10304000F6F36426B3FBF6F303EBC30606EB0313B8
:10305000A1EB8301322303EB01116423B1FBF3F1F4
:1030600001F00F0111442268916070BD00380140E9
:10307000014691F83900212828D18868B0F5805F91
:103080000BD1086948B90A6A1088C0F308000B68B8
:103090005860086A801C086205E00B6A581C0862C8
:1030A00018780B685860C88C401E80B2C88458B924
:1030B0000868C06820F080000B68D8600868C068A5
:1030C00040F040000B68D860002070470220FCE709
:1030D0002DE9F04104460D4617469846069E21E02C
:1030E000701CF8B12EB1FEF7D5F9A0EB0800B04284
:1030F00018D92068C06820F4D0702168C8602068A2
:10310000406920F0010021684861202084F83900DE
:1031100084F83A0000BF002084F8380000BF032084
:10312000BDE8F081206800682840A84201D1012054
:1031300000E00020B842D3D00020F1E710B5FFF73F
:1031400091FB0248FFF79EF810BD0000E800002048
:1031500000BFFEE770B586B0134DFDF7EDFF002010
:1031600002900495012005900020019001A902A879
:10317000FDF728FF002411E00C4810F8140001218D
:1031800001EB4401094A515C40EA01263246002322
:1031900029460120FDF778FFAD1C641C322CEBDBC7
:1031A000FDF768FF06B070BD00F000087C0300204A
:1031B00002480068C0F30220704700000CED00E0F8
:1031C00010B5002804DB0A07130E054A135406E065
:1031D0000A07140E034A00F00F031B1FD45410BD3E
:1031E00000E400E018ED00E0EFF311807047EFF32A
:1031F00005807047EFF31080704702E008C8121F87
:1032000008C1002AFAD170477047002001E001C1CF
:10321000121F002AFBD1704710B51548007801280D
:1032200004D002280AD003281FD10EE04FF4967074
:10323000FDF748FA00200E49087017E06420FDF7FA
:1032400041FA00200A49087010E03220FDF73AFAEE
:10325000642000F0FDF83220FDF734FA642000F01D
:10326000F7F800200249087000E000BF00BF10BD61
:103270001C00002008B501460B466A461878D0703D
:103280005878907098785070D8781070009808BD71
:103290002DE9F04101210220FDF784F98046FDF778
:1032A0003AF806460022274BFCF7BEFF0446FDF71E
:1032B0003FF82549088001210320FDF773F9804676
:1032C000FDF729F80646214A214BFCF7ADFF0446DD
:1032D000FDF72EF81C49488001210420FDF762F912
:1032E0008046FDF718F806461A4A1B4BFCF79CFF70
:1032F0000446FDF71DF81449888001210520FDF7DB
:1033000051F98046FDF707F80646144A144BFCF7BE
:103310008BFF0446FDF70CF80B49C88001210620FD
:10332000FDF740F98046FCF7F6FF06460D4A0E4BC6
:10333000FCF77AFF0446FCF7FBFF03490881BDE870
:10334000F08100000000F03F70010020E25E05B354
:10335000A41CF83F4150F233EF79F83F3FF6633F4A
:10336000F663F83F9D7E5B69D6B8F83F10B52248FA
:1033700090F80001B0B3204890F800011F49B1F95E
:103380000010884205D01C4890F800011B490880B5
:103390002FE0194890F800011849B1F9001088424F
:1033A00027D11648B0F9000007281CDD1248007824
:1033B0005A2818D110484078A52814D10E48807892
:1033C000062803D00C48807808280CD10A48C01C75
:1033D000FFF790FA002009490880074981F80001A9
:1033E000012010BD05E0002004490880024981F851
:1033F00000010020F5E700007B0200201E000020F5
:1034000002480068012121EA103070470808014095
:1034100002480068012121EAD020704708080140D5
:10342000014800687047000020000020FEF744F8C3
:10343000FFF74EFCFFF734F9FFF7E0F8FFF798F9D4
:1034400000F022F8FFF7F6F800F03EF800BFFEE7C4
:1034500070B50546FFF7CBFE48B9FFF7CBFE30B994
:1034600008480068022805D1FFF7BEFE10B16FF0D2
:10347000050404E0002415B1284601F073F9204644
:1034800070BD00009000002010B5FFF7B0FE48B9F5
:10349000FFF7B0FE30B90B480068022805D1FFF7EE
:1034A000A3FE10B16FF0050409E00648006820B9DA
:1034B000012004490860002401E04FF0FF34204659
:1034C00010BD00009000002010B5FFF790FE48B935
:1034D000FFF790FE30B90C480068022805D1FFF7CD
:1034E00083FE10B16FF005040CE007480068012866
:1034F00006D102200449086001F0B0F9002401E07F
:103500004FF0FF34204610BD900000202DE9F04719
:1035100086B080468946144600200490FFF767FE77
:1035200000285DD1FFF766FE002859D12D480068BC
:10353000022803D1FFF758FE002851D1B8F1000F3F
:103540004ED080261825002005900DF1140A471E44
:1035500044B3206808B1D4F800A0A06900B1A569FF
:103560002DB1382D03D8207900F0010018B10020CA
:1035700006B0BDE8F087606908B160698608A06898
:1035800040B1E0685C2805D3206918B1606908B1D2
:10359000012708E0A06830B9E06820B9206910B9B7
:1035A000002700E00027012F0CD12169A0684B46BD
:1035B0003246CDE9005102905146404601F0AEFD41
:1035C00004900DE067B904A8B2B24B465146CDE96C
:1035D0000050404601F070FD012801D00020049009
:1035E0000498C5E7900000202DE9F04105460E46FD
:1035F0001648076816480068001D00F033FF681C75
:1036000038B936B112480168091D124800F080FF30
:103610001AE07C190E4800684460BC4207D20C488E
:103620000168091D0C48006800F058FF0CE00848CC
:103630000168091D0948006800F050FF084800684B
:10364000844201D206480460BDE8F08154000020A5
:10365000400000200809002048000020440000200D
:103660007000002010B5044600F05EFF244800689A
:10367000401C234908602348006840B92148046081
:103680000846006801280DD100F0F8F90AE01E484C
:10369000006838B91B480068C06AE16A884201D8EE
:1036A0001848046019480068401C1849086008461A
:1036B000006860641649E06A0968884202D91449C2
:1036C000E06A0860E16A01EB8101124A02EB8100C5
:1036D000211D00F01DFF00F051FF0B48006868B18C
:1036E00008480068C06AE16A884207D24FF08050FB
:1036F00009490860BFF34F8FBFF36F8F10BD000003
:1037000050000020400000205C0000206C000020E1
:10371000580000205804002004ED00E008B500F037
:1037200003FF12480068E8B9114800F0C7FE1148CD
:1037300000F0C4FE0E48104908600E480F490860AA
:1037400000200F4B0F4A102100900A2001F0AEF923
:10375000064908600846006820B10BA103480068CC
:1037600000F0C4FF00F00AFF08BD00008400002044
:103770001C090020300900207C000020800000206F
:103780004409002094090020546D7251000000008B
:1037900010B516E000F0C8FE0C48C068C468201DD3
:1037A00000F060FE0A480068401E094908600948A8
:1037B0000068401E0749086000F0E0FE204600F067
:1037C0005EF8044800680028E4D110BDF408002029
:1037D000500000204C00002070B504460D46206CBF
:1037E00070B1216CE0680844E0606168E06888427C
:1037F00001D32068E0602846226CE168FCF7F0FC09
:1038000070BD2DE9F04104460F4615464FF0000803
:10381000A66B206C40B9206860BB606801F092FD27
:1038200080460020606025E07DB93946226CA068A2
:10383000FCF7D6FC216CA0680844A060D4E9011014
:10384000884217D32068A06014E03946226CE068F3
:10385000FCF7C6FC216CE068401AE0602168E06873
:10386000884203D2216C6068401AE060022D01D1C9
:1038700006B1761E701CA0634046BDE8F08110B50D
:10388000044694F8590030B9206B00F095FE2046AC
:1038900000F092FE1AE094F85900012803D1204666
:1038A00000F08AFE12E094F85900022801D10120AC
:1038B00000E0002050B900BF502080F31188BFF312
:1038C0004F8FBFF36F8F00BF00BFFEE710BD00003A
:1038D0000146084A126812680AB9012200E0002273
:1038E0000A600A6822B9034A1268D268106800E0C8
:1038F000002070477C00002030B54FF4406317482B
:1039000000F007042CB1C01D20F00700134C041B6D
:103910001B1B0246124C22600024114D6C60D01813
:10392000083820F007000F4C206000240D4D2D6852
:103930006C600C4D2D682C601146441A4C60094C8B
:1039400024680C60084D4C682C60084D4C682C6055
:103950004FF00044064D2C6030BD0000EC100020FC
:10396000940000209C000020A4000020A000002063
:10397000A800002000BFFFF70BFF064800680128E1
:10398000F9D94FF0805004490860BFF34F8FBFF35F
:103990006F8FF0E75804002004ED00E02DE9F041BE
:1039A00006460D4617469846069C0DB9246000E071
:1039B0002760E66325640121204601F0E7F884F8DA
:1039C0004C80BDE8F0812DE9F05F82460F469046BD
:1039D0009B460A9E0C9C4FEA8801A522206BFCF7AF
:1039E00011FCA8F10100216B01EB800929F0070906
:1039F00009F0070008B9012000E0002050B900BF1D
:103A0000502080F31188BFF34F8FBFF36F8F00BF3B
:103A100000BFFEE7002507E0795D04F13400415561
:103A2000785D00B902E06D1C102DF5D300BF0021B8
:103A300043200155382E00D33726E662E664002085
:103A40002065201D00F047FD04F1180000F043FD43
:103A50002461C6F13800A06164620020606584F8CA
:103A600058005A465146484600F0F0FB20600B983B
:103A700008B10B980460BDE8F09F000010B5002469
:103A800007E004EB84010F4A02EB810000F016FD11
:103A9000641C382CF5D30C4800F010FD0B4800F0E6
:103AA0000DFD0B4800F00AFD0A4800F007FD0A482A
:103AB00000F004FD0448094908600448084908600A
:103AC00010BD000058040020B8080020CC080020D9
:103AD000E0080020F408002008090020440000202D
:103AE0004800002010B50146164800E00068036851
:103AF0008B42FBD30246436813448B4204D1436894
:103B00004C682344436001460A464B6813440468EA
:103B1000A34211D10C4C03682468A34208D04B681F
:103B20000468646823444B6003681B680B6005E00D
:103B3000054B1B680B6001E003680B60884200D0F6
:103B4000016010BD940000209C0000202DE9F04190
:103B500004460D4616461F464FF000086560246176
:103B6000B5420CD8F01BA169884202D34FF001087E
:103B700011E0211D0948006800F0B0FC0BE0BE42D6
:103B800004D2BD4202D34FF0010804E0211D0448D5
:103B9000006800F0A3FC4046BDE8F08180000020F2
:103BA0007C00002070B5054600F0BEFCA86B08B98B
:103BB000012400E0002400F0E1FC204670BD70B557
:103BC000054600F0B1FCA86BE96B884201D10124E5
:103BD00000E0002400F0D2FC204670BDF8B5054698
:103BE0000F4616480068C068C468201D00F03AFC03
:103BF000E06901281DD1A06941192B463A462046AB
:103C0000FFF7A4FFA8B1002003462A460146009012
:103C1000204601F0F3FC064656B900BF502080F361
:103C20001188BFF34F8FBFF36F8F00BF00BFFEE758
:103C300000BF2046616A8847F8BD00007C00002074
:103C4000F0B587B082E00398002811DA04AE56B9C7
:103C500000BF502080F31188BFF34F8FBFF36F8FE9
:103C600000BF00BFFEE7D6E90020B168904700BF63
:103C7000039800286ADB059C606908B9012000E010
:103C8000002010B9201D00F0EDFB02A800F0C0F8E4
:103C9000054603980A2857D2DFE800F009050731E6
:103CA000334F0608323400BF00BF00BF00BF049886
:103CB000A269811803462A462046FFF747FFE8B16C
:103CC0002046616A8847E069012817D100200090EA
:103CD0000498A169421800231946204601F08EFC81
:103CE000074657B900BF502080F31188BFF34F8FAC
:103CF000BFF36F8F00BF00BFFEE700BF25E000BF2E
:103D000023E000BF0498A061A06908B1012000E091
:103D1000002050B900BF502080F31188BFF34F8FAF
:103D2000BFF36F8F00BF00BFFEE7A06941192B46AC
:103D30002A462046FFF70AFF07E094F82C0010B946
:103D4000204600F039FC00E000BF00BF002203A9BC
:103D50000448006801F0B6F800287FF474AF07B09B
:103D6000F0BD000084000020F8B505460C4600F0C8
:103D7000D1FD684600F04CF80646009820BB44B9D7
:103D8000B54206D801F07CFB31462846FFF726FFF6
:103D90001CE03CB10E480068006808B9012000E052
:103DA00000200446A91B22460A48006800F0B4FC23
:103DB00001F066FB50B94FF0805007490860BFF32F
:103DC0004F8FBFF36F8F01E001F05AFBF8BD000089
:103DD000800000208400002004ED00E00A4909680A
:103DE000096809B9012100E0002121B14FF0FF313C
:103DF000064A116006E004490968C968C868034AB0
:103E000041681160704700004400002070000020ED
:103E100070B5044601F0EEF9054607480068854292
:103E200004D200F00BF80120206001E000202060A7
:103E300001480560284670BD8C0000202DE9F8433C
:103E400032E024480068C068056822480068C068FD
:103E5000C468201D00F006FB2046616A8847E069BF
:103E6000012821D1A0694619AE4207D966602461B4
:103E7000211D1848006800F031FB15E000200346C2
:103E80002A4601460090204601F0B8FB074657B984
:103E900000BF502080F31188BFF34F8FBFF36F8FA7
:103EA00000BF00BFFEE700BF0A480068006808B90D
:103EB000012000E000200028C3D00648D0F8008090
:103EC00005480068034908600348C0F80080BDE861
:103ED000F88300007C000020800000200E4800686D
:103EE000401C08B9012000E0002050B900BF50205C
:103EF00080F31188BFF34F8FBFF36F8F00BF00BFF8
:103F0000FEE700BF502080F31188BFF34F8FBFF34F
:103F10006F8F00BF00BFFEE7AC00002008B500BFF8
:103F20006846FFF7D5FC044620460099FFF71CFFC2
:103F3000FFF786FEF4E770B5044600F0F5FA94F951
:103F4000455010E0606A08B9012000E0002038B94F
:103F500004F1240001F048FA18B100F03DFC00E043
:103F600003E0681E45B2002DECDC00BFFF2084F8A2
:103F7000450000F003FB00F0D7FA94F9445010E03C
:103F8000206908B9012000E0002048B904F11000C0
:103F900001F02AFA08B100F01FFC681E45B200E0EB
:103FA00001E0002DECDC00BFFF2084F8440000F0AD
:103FB000E5FA70BD10B5534801884FF48050FCF706
:103FC000D9FB5048418841F20200FCF7D3FB4D4831
:103FD000818841F20400FCF7CDFB4A48C18841F2D8
:103FE0000600FCF7C7FB4748018941F20800FCF7CF
:103FF000C1FB4548018841F21000FCF7BBFB424879
:10400000418841F21200FCF7B5FB3F48818841F23C
:104010001400FCF7AFFB3C48C18841F21600FCF7E6
:10402000A9FB3948018941F21800FCF7A3FBFFF70F
:10403000F7F94FF46161B0FBF1F084B221464FF41F
:104040008950FCF797FBFFF7EBF93C21B0FBF1F04F
:10405000B0FBF1F201FB1204214641F22210FCF701
:1040600089FBFFF7DDF93C21B0FBF1F201FB120403
:10407000214641F22410FCF77DFB2448018841F2DF
:104080002200FCF777FB2148418841F22400FCF72D
:1040900071FB1E48818841F22600FCF76BFB1B4830
:1040A000C18841F22800FCF765FB1848018941F2FC
:1040B0003000FCF75FFB1548C0683C21B0FBF1F213
:1040C00001FB120421464FF48850FCF753FB0F48C4
:1040D000C0683C21B0FBF1F0B0FBF1F201FB12042F
:1040E000214641F20210FCF745FB0848C0684FF436
:1040F0006161B0FBF1F084B2214641F20410FCF79B
:1041000039FB10BD7001002010000020E0030020EA
:104110002DE9F04104464FF0000800F0FBFB464853
:10412000006808B9FFF7E8FB444800682040002811
:104130006BD1D4B1083404F00700B0B104F007002B
:10414000C0F10800044404F0070008B9012000E0B1
:10415000002050B900BF502080F31188BFF34F8F6B
:10416000BFF36F8F00BF00BFFEE7002C4DD0344877
:104170000068844249D8334E3046056801E02E4637
:104180002D686868A04202D228680028F7D12A4822
:104190000068854239D0306800F10808286830602E
:1041A0006868001B102819D92F1907F0070008B9F3
:1041B000012000E0002050B900BF502080F311889A
:1041C000BFF34F8FBFF36F8F00BF00BFFEE768687C
:1041D000001B78606C603846FFF784FC18496868FB
:1041E0000968081A164908600846006816490968EF
:1041F000884203D212480068134908600F49686872
:104200000968084368600020286001F039F908F067
:10421000070008B9012000E0002050B900BF50207D
:1042200080F31188BFF34F8FBFF36F8F00BF00BFC4
:10423000FEE74046BDE8F0819C000020A800002079
:10424000A000002094000020A4000020001F4FF0D8
:1042500080730360001F21F001030360001F034B04
:10426000036014380260203870470000DD3E00080B
:104270000F480088401C0E49088008460088052821
:1042800004DA4FF480700B49086010E00848008899
:10429000052809DB064800880A2805DC4FF48070F1
:1042A0000449091D086002E00020014908807047A8
:1042B0002C0000201008014010B51048008830B1D3
:1042C00001280DD0022810D0032814D110E00C4989
:1042D000C86800F0A3F8FEF7DBFFFEF7A1FB0AE0D9
:1042E000FEF7D6FFFEF7D0FB05E0FEF76BFC02E021
:1042F000FEF790FC00BF00BF10BD00001A000020B8
:10430000E003002001490870704700001C000020F5
:10431000062837D2DFE800F036030D17212B09B944
:10432000012200E00022130180229A40164B1A60FD
:1043300028E009B9012200E00022130101229A407D
:10434000124B1A601EE009B9012200E0002213019D
:1043500002229A400D4B1A6014E009B9012200E0D4
:104360000022130104229A40084B1A600AE009B99E
:10437000012200E0002213014FF480629A40034BB7
:104380001A6000BF00BF704710080140100C0140C8
:10439000062838D2DFE800F037030D17212C09B9C1
:1043A000012200E00022130120229A40174B1A60DC
:1043B00029E009B9012200E00022130140229A40BD
:1043C000124B1A601FE009B9012200E0002213011C
:1043D00080229A400D4B1A6015E009B9012200E0D5
:1043E000002213014FF480729A40084B1A600AE0D1
:1043F00009B9012200E0002213014FF400729A4033
:10440000024B1A6000BF00BF70470000100C014053
:10441000014908707047000024000020014908602D
:1044200070470000200000200B480068401C0A492B
:1044300008600846006809280CD900200860074871
:10444000007838B10648006820B105480068401E71
:104450000349086070470000280000202400002065
:104460002000002001460A69D1E901309860D1E9B5
:10447000010358605068884201D18868506000206C
:1044800008611068401E106010687047034B03609D
:10449000034B0B608023136070470000340A002038
:1044A000900A0020034B0360034B0B604FF48073B2
:1044B00013607047900C0020EC0C002000F1080104
:1044C00041604FF0FF31816000F10801C16001617E
:1044D00000210160704700210161704710B502465C
:1044E0000B685C1C0CB9106907E002F1080000E0E1
:1044F0004068446824689C42FAD944684C604C681F
:10450000A160886041600A611468641C146010BD79
:1045100042684A6093688B60936859609160086153
:1045200003685B1C0360704700BF502080F3118854
:10453000BFF34F8FBFF36F8F00BF0E480068401C62
:104540000C49086008460068012812D10A48006832
:10455000C0B208B9012000E0002050B900BF5020CF
:1045600080F31188BFF34F8FBFF36F8F00BF00BF81
:10457000FEE77047AC00002004ED00E00D48006845
:1045800050B900BF502080F31188BFF34F8FBFF3A5
:104590006F8F00BF00BFFEE706480068401E054958
:1045A00008600846006820B9002080F3118800BF29
:1045B00000BF7047AC00002070B506463546002E9F
:1045C0003FD0083D2C461F4960680968084008B183
:1045D000012000E0002050B900BF502080F3118876
:1045E000BFF34F8FBFF36F8F00BF00BFFEE72068A0
:1045F00008B9012000E0002050B900BF502080F32E
:104600001188BFF34F8FBFF36F8F00BF00BFFEE76E
:104610000C4960680968084098B1206888B9094960
:10462000606809688843606000F074F90649606852
:1046300009680844044908602046FFF753FA00F06F
:104640001FFF70BDA8000020A000002000204FF038
:10465000E02108618861064800684FF47A71B0FB78
:10466000F1F0401E4FF0E0214861072008617047DB
:104670003C00002070B5FBF78DFD0446102C16D3CE
:1046800004F1E02090F8F05315480078854201DBF2
:10469000012000E0002050B900BF502080F31188B5
:1046A000BFF34F8FBFF36F8F00BF00BFFEE70D4812
:1046B000006800F4E0600C490968884201D80120D4
:1046C00000E0002050B900BF502080F31188BFF3F4
:1046D0004F8FBFF36F8F00BF00BFFEE770BD0000BC
:1046E000B00000200CED00E0B400002002460020E5
:1046F0000BE0084B53F8303033B9064B43F8301019
:1047000003EBC0035A6002E0401C0828F1D300BF4D
:1047100070470000180400202DE9F04105460E46C0
:1047200017462C46FFF700FF94F94400401C10B9CF
:10473000002084F8440094F94500401C10B9002082
:1047400084F84500FFF71AFFA06B28B93A463146B6
:1047500004F1240000F062F82046FFF7ECFBBDE80E
:10476000F081000070B504460025D4B112480068FD
:1047700008B9012000E0002050B900BF502080F3AC
:104780001188BFF34F8FBFF36F8F00BF00BFFEE7ED
:1047900000F0C0F800212046FEF726FF00F070FE72
:1047A00005463DB94FF0805004490860BFF34F8F74
:1047B000BFF36F8F70BD00007800002004ED00E0B3
:1047C00003490968016003490968416070470000B6
:1047D0006800002054000020012001490860704753
:1047E0006400002070B504460D4654B900BF502047
:1047F00080F31188BFF34F8FBFF36F8F00BF00BFEF
:10480000FEE70548016818312046FFF767FE0121E1
:104810002846FEF7E9FE70BD4000002070B5054651
:104820000E46144655B900BF502080F31188BFF3DF
:104830004F8FBFF36F8F00BF00BFFEE706480168D0
:1048400018312846FFF764FE0CB14FF0FF362146C1
:104850003046FEF7C9FE70BD4000002010B586B09E
:1048600000200590049003AA04A905A8FFF70EFEF6
:104870000022DDE904101346CDE9002102901EA1BB
:104880001F48039A00F04AFC1E4908600846006869
:1048900008B1012400E00024012C02D100F072FED6
:1048A0000446012C15D100BF502080F31188BFF3BE
:1048B0004F8FBFF36F8F00BF4FF0FF30124908607A
:1048C00001201249086000201149086000F072F8C8
:1048D00010E0601C08B1012000E0002050B900BFCA
:1048E000502080F31188BFF34F8FBFF36F8F00BF4D
:1048F00000BFFEE706B010BD49444C450000000073
:104900007539000874000020700000205C00002051
:104910005400002002480068401C014908607047AC
:10492000780000201E48006818B101201D49086069
:1049300034E000201B4908601B4801680CE051B9B5
:1049400000BF502080F31188BFF34F8FBFF36F8FEC
:1049500000BF00BFFEE7491E01EB8100134A52F879
:10496000200008B9012000E000200028E7D101EB79
:1049700081020E4B03EB820042685268426000F1F4
:1049800008024368934202D142685268426042681A
:10499000D268074B1A600448016000BF70470000EE
:1049A00078000020640000205800002058040020F7
:1049B000400000201CB53849084600780190FF20CF
:1049C0000A4610700846007800909DF8000000F03C
:1049D000F0009DF80020904201D1012000E000206D
:1049E00050B900BF502080F31188BFF34F8FBFF341
:1049F0006F8F00BF00BFFEE79DF8000000F0500081
:104A0000264A10700720264A106009E024480068F2
:104A1000401E234A10609DF800004006000E0090E2
:104A20009DF8000000F080008028EFD01C4800684E
:104A3000C0F10700042801D1012000E0002050B996
:104A400000BF502080F31188BFF34F8FBFF36F8FEB
:104A500000BF00BFFEE7124800680002104A106065
:104A60001046008800F4E06010600B4A0198107056
:104A70000C48006840F470000A4908600846006865
:104A800040F070400860FFF7E1FD00200649086033
:104A9000FBF74AFB00201CBD00E400E0B000002052
:104AA000B400002020ED00E0AC0000202DE9F84328
:104AB00080460E4617461D46DDF82090B8F1000FDF
:104AC00001D0012000E0002050B900BF502080F349
:104AD0001188BFF34F8FBFF36F8F00BF00BFFEE79A
:104AE0000DB1012000E0002050B900BF502080F33C
:104AF0001188BFF34F8FBFF36F8F00BF00BFFEE77A
:104B000007B10EB1012000E0002050B900BF5020D5
:104B100080F31188BFF34F8FBFF36F8F00BF00BFCB
:104B2000FEE707B90EB9012000E0002050B900BF30
:104B3000502080F31188BFF34F8FBFF36F8F00BFFA
:104B400000BFFEE7502000900098502801D10120BE
:104B500000E0002050B900BF502080F31188BFF35F
:104B60004F8FBFF36F8F00BF00BFFEE72C464CB1E5
:104B7000012084F846004B463A46314640460094B0
:104B8000FEF70CFF2046BDE8F883000070B505462F
:104B90000E462C4654B900BF502080F31188BFF355
:104BA0004F8FBFF36F8F00BF00BFFEE7FFF7BCFC66
:104BB000D4E90F12206801FB020060600020A063AE
:104BC0002068A060E06B401E226C216800FB021090
:104BD000E060FF2084F8440084F845009EB9206915
:104BE00008B9012000E00020A8B904F1100000F08D
:104BF000FBFB80B14FF0805009490860BFF34F8F35
:104C0000BFF36F8F07E004F11000FFF757FC04F1CA
:104C10002400FFF753FCFFF7B1FC012070BD00003A
:104C200004ED00E02DE9FF4383B0064688461D46AB
:104C30004FF00009344654B900BF502080F311886A
:104C4000BFF34F8FBFF36F8F00BF00BFFEE7B8F118
:104C5000000F01D1206C08B9012000E0002050B9FC
:104C600000BF502080F31188BFF34F8FBFF36F8FC9
:104C700000BF00BFFEE7022D02D1E06B012801D189
:104C8000012000E0002050B900BF502080F31188BF
:104C9000BFF34F8FBFF36F8F00BF00BFFEE700F081
:104CA00099FA08B9059808B9012000E0002050B928
:104CB00000BF502080F31188BFF34F8FBFF36F8F79
:104CC00000BF00BFFEE700BFFFF72EFCA06BE16B4B
:104CD000884201D3022D28D12A4641462046FEF7BC
:104CE00090FD0746606A08B9012000E0002068B91D
:104CF00004F1240000F078FB88B14FF08050324975
:104D00000860BFF34F8FBFF36F8F08E03FB14FF0E4
:104D100080502D490860BFF34F8FBFF36F8FFFF7AF
:104D20002DFC012007B0BDE8F083059818B9FFF706
:104D300025FC0020F6E7B9F1000F04D101A8FFF728
:104D40003FFD4FF00109FFF719FCFFF7E3FDFFF707
:104D5000EBFB94F94400401C10B9002084F8440097
:104D600094F94500401C10B9002084F84500FFF775
:104D700005FC05A901A800F059F9F0B92046FEF795
:104D80001EFFA0B104F110000599FFF72BFD20468E
:104D9000FFF7D1F800F074FB002895D14FF0805058
:104DA00009490860BFF34F8FBFF36F8F8CE7204630
:104DB000FFF7C1F800F064FB86E72046FFF7BBF879
:104DC00000F05EFB0020ADE704ED00E02DE9F05FB0
:104DD00007468A4690461E463C4654B900BF5020BE
:104DE00080F31188BFF34F8FBFF36F8F00BF00BFF9
:104DF000FEE7BAF1000F01D1206C08B9012000E0F4
:104E0000002050B900BF502080F31188BFF34F8FAE
:104E1000BFF36F8F00BF00BFFEE7022E02D1E06B31
:104E2000012801D1012000E0002050B900BF50202E
:104E300080F31188BFF34F8FBFF36F8F00BF00BFA8
:104E4000FEE7FFF717FC00BF5021EFF3118081F35D
:104E50001188BFF34F8FBFF36F8F00BF0546A06B64
:104E6000E16B884201D3022E23D194F945B032463A
:104E700051462046FEF7C5FC0BF1010088B9606A77
:104E800008B9012000E0002080B904F1240000F0FE
:104E9000ABFA58B1B8F1000F08D00120C8F80000F3
:104EA00004E00BF1010040B284F845004FF0010925
:104EB00001E04FF0000900BF85F3118800BF4846AC
:104EC000BDE8F09F2DE9F74183B005460E464FF04F
:104ED00000082C4654B900BF502080F31188BFF35E
:104EE0004F8FBFF36F8F00BF00BFFEE70EB9206C7E
:104EF00008B9012000E0002050B900BF502080F325
:104F00001188BFF34F8FBFF36F8F00BF00BFFEE765
:104F100000F060F908B9059808B9012000E0002008
:104F200050B900BF502080F31188BFF34F8FBFF3FB
:104F30006F8F00BF00BFFEE700BFFFF7F5FAA76B5A
:104F4000F7B131462046FEF747FC781EA063206982
:104F500008B9012000E0002060B904F1100000F061
:104F600043FA38B14FF080502F490860BFF34F8F9C
:104F7000BFF36F8FFFF702FB012006B0BDE8F081A1
:104F8000059818B9FFF7FAFA0020F6E7B8F1000F14
:104F900004D101A8FFF714FC4FF00108FFF7EEFA67
:104FA000FFF7B8FCFFF7C0FA94F94400401C10B9B1
:104FB000002084F8440094F94500401C10B90020FA
:104FC00084F84500FFF7DAFA05A901A800F02EF8E9
:104FD000F0B92046FEF7E6FDA0B104F124000599E2
:104FE000FFF700FC2046FEF7A6FF00F049FA002874
:104FF000A3D14FF080500C490860BFF34F8FBFF32F
:105000006F8F9AE72046FEF796FF00F039FA94E793
:105010002046FEF790FF00F033FA2046FEF7C2FD6F
:1050200000288AD00020A8E704ED00E070B505460E
:105030000C4655B900BF502080F31188BFF34F8F45
:10504000BFF36F8F00BF00BFFEE754B900BF502011
:1050500080F31188BFF34F8FBFF36F8F00BF00BF86
:10506000FEE7FFF761FA124802686868131A2068C1
:10507000401C08B9002617E00E49286809688842D4
:1050800004D06868904201D801260DE0206898425B
:1050900007D92068C01A20602846FFF791FB002638
:1050A00002E0002020600126FFF768FA304670BD5C
:1050B00054000020680000202DE9FF4F85B0804695
:1050C00089461746DDE912ABB800FFF721F806461E
:1050D00056B15C20FFF71CF804460CB1266304E0CF
:1050E0003046FFF769FA00E000248CB1002084F814
:1050F0005900CDE900ABCDE902403A464946404669
:10510000089BFEF760FC2046FEF7ACFA012501E0A3
:105110004FF0FF35284609B0BDE8F08F2DE9F04F7C
:1051200085B00746884691469A46DDE90EB6109C42
:105130000EB1012000E0002050B900BF502080F3E4
:105140001188BFF34F8FBFF36F8F00BF00BFFEE723
:105150000CB1012000E0002050B900BF502080F3C6
:105160001188BFF34F8FBFF36F8F00BF00BFFEE703
:105170005C20039003985C2801D1012000E000200E
:1051800050B900BF502080F31188BFF34F8FBFF399
:105190006F8F00BF00BFFEE7B4B1AEB125462C460D
:1051A0002E63022085F85900002004A953464A4680
:1051B000CDE900B1CDE9025041463846FEF703FC87
:1051C0002846FEF74FFA01E000200490049805B04D
:1051D000BDE8F08F0549096809B9012005E00449D7
:1051E000096809B9022000E0002070475C00002037
:1051F0007800002001490868704700005400002032
:105200002DE9F0414FF0000843480068002876D1AE
:1052100042480068451C4148056015BB404800688D
:10522000006808B9012000E0002050B900BF5020FC
:1052300080F31188BFF34F8FBFF36F8F00BF00BFA4
:10524000FEE7374807683748006835490860354841
:10525000076035480068401C33490860FEF7BEFD12
:1052600000BF3248006885423BD300BF2C4800682D
:10527000006808B9012000E0002020B14FF0FF30A5
:105280002A4908602CE026480068C068C46866683F
:10529000B54202D22548066022E0201DFFF7E2F861
:1052A000A06A18B104F11800FFF7DCF82049E06AA1
:1052B0000968884202D91E49E06A0860E16A01EB88
:1052C00081011C4A02EB8100211DFFF721F91A49D7
:1052D000E06A0968C96A8842C8D34FF00108C5E787
:1052E00000BF15480068C06A00EB8000114951F802
:1052F0002000012801D94FF0010805E0FFE70F4821
:105300000068401C0D4908600D48006808B14FF066
:1053100001084046BDE8F0817800002054000020DC
:105320004400002048000020680000207000002099
:105330005800002058040020400000206000002099
:105340006400002070B505462C460026002D43D091
:1053500022480068844201D1012000E0002050B9B9
:1053600000BF502080F31188BFF34F8FBFF36F8FC2
:1053700000BF00BFFEE7206D50B900BF502080F392
:105380001188BFF34F8FBFF36F8F00BF00BFFEE7E1
:10539000206D401E2065E16CE06A88421CD0206DC3
:1053A000D0B9201DFFF75EF8E06CE062E06AC0F162
:1053B0003800A0610A49E06A0968884202D90849B0
:1053C000E06A0860E16A01EB8101064A02EB8100B4
:1053D000211DFFF79DF80126304670BD40000020DA
:1053E000580000205804002070B50646F068C468D4
:1053F00054B900BF502080F31188BFF34F8FBFF323
:105400006F8F00BF00BFFEE704F11800FFF72AF816
:1054100015480068A0B9201DFFF724F81349E06A79
:105420000968884202D91149E06A0860E16A01EB23
:1054300081010F4A02EB8100211DFFF769F804E0AA
:1054400004F118010B48FFF763F80B49E06A09689B
:10545000C96A884204D9012501200849086000E092
:105460000025284670BD000078000020580000206C
:1054700058040020E00800204000002064000020C4
:1054800070B5002400263648006850B900BF50208F
:1054900080F31188BFF34F8FBFF36F8F00BF00BF42
:1054A000FEE7FFF741F82E480068401E2C490860CF
:1054B0000846006800284ED12A48006800284AD0D3
:1054C00023E02948C068C46804F11800FEF7CAFF49
:1054D000201DFEF7C7FF2549E06A0968884202D906
:1054E0002249E06A0860E16A01EB8101204A02EB8F
:1054F0008100211DFFF70CF81E49E06A0968C96A9E
:10550000884202D301201C4908601748006808B986
:10551000012000E000200028D3D00CB1FEF75EFC93
:105520001648056865B100BFFFF76AFE10B101209B
:10553000114908606D1E002DF6D100200F4908604A
:105540000D48006838B1012630070D490860BFF3E7
:105550004F8FBFF36F8FFFF711F8304670BD00001B
:105560007800002050000020E008002058000020B3
:10557000580400204000002064000020600000204B
:1055800004ED00E010B586B00024FEF7C7F8164819
:105590000068D0B100200590049003AA04A905A8D2
:1055A000FEF780FF0222DDE904100023CDE900218F
:1055B00002900EA10F48039AFFF7B0FD0E49086054
:1055C0000846006800B1012400BF54B900BF502054
:1055D00080F31188BFF34F8FBFF36F8F00BF00BF01
:1055E000FEE7204606B010BD84000020546D7220F6
:1055F000537663001D3F0008880000202DE9FF4717
:1056000004460D4616461F46DDF830804FF000096F
:1056100054B900BF502080F31188BFF34F8FBFF300
:105620006F8F00BF00BFFEE71448006810B30095FD
:1056300001960294062D15DAFFF7CCFD022808D159
:105640000023424669460D480068FFF7EBFA8146A1
:1056500010E000231A46694608480068FFF7E2FA9E
:10566000814607E000233A46694604480068FFF790
:10567000ADFB8146484604B0BDE8F08784000020B9
:105680002859000800000000000000000000000091
:1056900000000000000200001800000000000000F0
:1056A0000000000030590008000000000000000069
:1056B00000000000000000000002000018000000D0
:1056C0000000000000000000385900080000000041
:1056D00000000000000000000000000000020000C8
:1056E0001800000000000000000000004059000801
:1056F00000000000000000000000000000000000AA
:10570000000200001800000000000000000000007F
:1057100000C1814001C0804101C0804100C1814081
:1057200001C0804100C1814000C1814001C0804171
:1057300001C0804100C1814000C1814001C0804161
:1057400000C1814001C0804101C0804100C1814051
:1057500001C0804100C1814000C1814001C0804141
:1057600000C1814001C0804101C0804100C1814031
:1057700000C1814001C0804101C0804100C1814021
:1057800001C0804100C1814000C1814001C0804111
:1057900001C0804100C1814000C1814001C0804101
:1057A00000C1814001C0804101C0804100C18140F1
:1057B00000C1814001C0804101C0804100C18140E1
:1057C00001C0804100C1814000C1814001C08041D1
:1057D00000C1814001C0804101C0804100C18140C1
:1057E00001C0804100C1814000C1814001C08041B1
:1057F00001C0804100C1814000C1814001C08041A1
:1058000000C1814001C0804101C0804100C1814090
:1058100000C0C101C30302C2C60607C705C5C40450
:10582000CC0C0DCD0FCFCE0E0ACACB0BC90908C8C0
:10583000D81819D91BDBDA1A1EDEDF1FDD1D1CDCB0
:1058400014D4D515D71716D6D21213D311D1D01020
:10585000F03031F133F3F23236F6F737F53534F410
:105860003CFCFD3DFF3F3EFEFA3A3BFB39F9F83880
:1058700028E8E929EB2B2AEAEE2E2FEF2DEDEC2C70
:10588000E42425E527E7E62622E2E323E12120E0E0
:10589000A06061A163A3A26266A6A767A56564A4D0
:1058A0006CACAD6DAF6F6EAEAA6A6BAB69A9A86840
:1058B00078B8B979BB7B7ABABE7E7FBF7DBDBC7C30
:1058C000B47475B577B7B67672B2B373B17170B0A0
:1058D0005090915193535292965657975595945490
:1058E0009C5C5D9D5F9F9E5E5A9A9B5B9959589800
:1058F000884849894B8B8A4A4E8E8F4F8D4D4C8CF0
:10590000448485458747468682424383418180405F
:10591000000000000000000001020304060708095F
:1059200000000000010203045461736B3031000079
:105930005461736B303200005461736B303300007C
:105940005461736B30340000685900080000002077
:10595000B8000000FA310008205A0008B800002002
:10596000382000000A32000800000000000000009B
:10597000000000000000000003000300030003001B
:105980000300000000000000000000000000000014
:1059900000000000000000000000000010000000F7
:1059A000010000000024F4000000000000000000DE
:1059B00000000000000000000000000000000000E7
:1059C00000000000000000000000000000000000D7
:1059D00000000000000000000000000000000000C7
:1059E00000000000000000000000000000000000B7
:1059F00000000000000000000000000000000000A7
:105A00000000000000000000000000000000000096
:105A100000000000AAAAAAAA0000000000000000DE
:04000005080000ED02
:00000001FF
